{
  "contractName": "Casino",
  "abi": [
    {
      "inputs": [
        {
          "internalType": "uint256",
          "name": "_minimumBet",
          "type": "uint256"
        }
      ],
      "stateMutability": "nonpayable",
      "type": "constructor"
    },
    {
      "inputs": [],
      "name": "maxAmountOfBets",
      "outputs": [
        {
          "internalType": "uint256",
          "name": "",
          "type": "uint256"
        }
      ],
      "stateMutability": "view",
      "type": "function"
    },
    {
      "inputs": [],
      "name": "minimumBet",
      "outputs": [
        {
          "internalType": "uint256",
          "name": "",
          "type": "uint256"
        }
      ],
      "stateMutability": "view",
      "type": "function"
    },
    {
      "inputs": [],
      "name": "numberOfBets",
      "outputs": [
        {
          "internalType": "uint256",
          "name": "",
          "type": "uint256"
        }
      ],
      "stateMutability": "view",
      "type": "function"
    },
    {
      "inputs": [],
      "name": "owner",
      "outputs": [
        {
          "internalType": "address payable",
          "name": "",
          "type": "address"
        }
      ],
      "stateMutability": "view",
      "type": "function"
    },
    {
      "inputs": [
        {
          "internalType": "address",
          "name": "",
          "type": "address"
        }
      ],
      "name": "playerInfo",
      "outputs": [
        {
          "internalType": "uint256",
          "name": "amountBet",
          "type": "uint256"
        },
        {
          "internalType": "uint256",
          "name": "numberSelected",
          "type": "uint256"
        }
      ],
      "stateMutability": "view",
      "type": "function"
    },
    {
      "inputs": [
        {
          "internalType": "uint256",
          "name": "",
          "type": "uint256"
        }
      ],
      "name": "players",
      "outputs": [
        {
          "internalType": "address",
          "name": "",
          "type": "address"
        }
      ],
      "stateMutability": "view",
      "type": "function"
    },
    {
      "inputs": [],
      "name": "totalBet",
      "outputs": [
        {
          "internalType": "uint256",
          "name": "",
          "type": "uint256"
        }
      ],
      "stateMutability": "view",
      "type": "function"
    },
    {
      "inputs": [],
      "name": "kill",
      "outputs": [],
      "stateMutability": "nonpayable",
      "type": "function"
    },
    {
      "inputs": [
        {
          "internalType": "address",
          "name": "player",
          "type": "address"
        }
      ],
      "name": "checkPlayerExists",
      "outputs": [
        {
          "internalType": "bool",
          "name": "",
          "type": "bool"
        }
      ],
      "stateMutability": "nonpayable",
      "type": "function"
    },
    {
      "inputs": [
        {
          "internalType": "uint256",
          "name": "numberSelected",
          "type": "uint256"
        }
      ],
      "name": "bet",
      "outputs": [],
      "stateMutability": "payable",
      "type": "function"
    },
    {
      "inputs": [],
      "name": "generateNumberWinner",
      "outputs": [],
      "stateMutability": "nonpayable",
      "type": "function"
    },
    {
      "inputs": [
        {
          "internalType": "uint256",
          "name": "numberWinner",
          "type": "uint256"
        }
      ],
      "name": "distributePrizes",
      "outputs": [],
      "stateMutability": "nonpayable",
      "type": "function"
    }
  ],
  "bytecode": "0x60806040526064600455348015610014575f80fd5b50604051610d33380380610d33833981810160405281019061003691906100c1565b335f806101000a81548173ffffffffffffffffffffffffffffffffffffffff021916908373ffffffffffffffffffffffffffffffffffffffff1602179055505f811461008457806001819055505b506100ec565b5f80fd5b5f819050919050565b6100a08161008e565b81146100aa575f80fd5b50565b5f815190506100bb81610097565b92915050565b5f602082840312156100d6576100d561008a565b5b5f6100e3848285016100ad565b91505092915050565b610c3a806100f95f395ff3fe6080604052600436106100a6575f3560e01c80637365870b116100635780637365870b146101a15780638da5cb5b146101bd578063c38a8afd146101e7578063e08a96cd14610211578063f71d96cb1461023b578063fe5e185314610277576100a6565b80630a50e361146100aa5780632ca8c6d3146100c05780634081d916146100ea57806341c0e1b5146101265780634b1146911461013c5780636ca3fc3b14610179575b5f80fd5b3480156100b5575f80fd5b506100be6102a1565b005b3480156100cb575f80fd5b506100d46102c9565b6040516100e191906108c4565b60405180910390f35b3480156100f5575f80fd5b50610110600480360381019061010b919061093b565b6102cf565b60405161011d9190610980565b60405180910390f35b348015610131575f80fd5b5061013a610377565b005b348015610147575f80fd5b50610162600480360381019061015d919061093b565b610403565b604051610170929190610999565b60405180910390f35b348015610184575f80fd5b5061019f600480360381019061019a91906109ea565b610423565b005b6101bb60048036038101906101b691906109ea565b6106b0565b005b3480156101c8575f80fd5b506101d1610819565b6040516101de9190610a35565b60405180910390f35b3480156101f2575f80fd5b506101fb61083c565b60405161020891906108c4565b60405180910390f35b34801561021c575f80fd5b50610225610842565b60405161023291906108c4565b60405180910390f35b348015610246575f80fd5b50610261600480360381019061025c91906109ea565b610848565b60405161026e9190610a5d565b60405180910390f35b348015610282575f80fd5b5061028b610883565b60405161029891906108c4565b60405180910390f35b5f6001600a436102b19190610aa3565b6102bb9190610b00565b90506102c681610423565b50565b60035481565b5f805f90505b60058054905081101561036d578273ffffffffffffffffffffffffffffffffffffffff166005828154811061030d5761030c610b33565b5b905f5260205f20015f9054906101000a900473ffffffffffffffffffffffffffffffffffffffff1673ffffffffffffffffffffffffffffffffffffffff160361035a576001915050610372565b808061036590610b60565b9150506102d5565b505f90505b919050565b5f8054906101000a900473ffffffffffffffffffffffffffffffffffffffff1673ffffffffffffffffffffffffffffffffffffffff163373ffffffffffffffffffffffffffffffffffffffff1603610401575f8054906101000a900473ffffffffffffffffffffffffffffffffffffffff1673ffffffffffffffffffffffffffffffffffffffff16ff5b565b6006602052805f5260405f205f91509050805f0154908060010154905082565b61042b610889565b5f805b60058054905081101561057c575f600582815481106104505761044f610b33565b5b905f5260205f20015f9054906101000a900473ffffffffffffffffffffffffffffffffffffffff1690508460065f8373ffffffffffffffffffffffffffffffffffffffff1673ffffffffffffffffffffffffffffffffffffffff1681526020019081526020015f20600101540361051b57808484606481106104d5576104d4610b33565b5b602002019073ffffffffffffffffffffffffffffffffffffffff16908173ffffffffffffffffffffffffffffffffffffffff1681525050828061051790610b60565b9350505b60065f8273ffffffffffffffffffffffffffffffffffffffff1673ffffffffffffffffffffffffffffffffffffffff1681526020019081526020015f205f8082015f9055600182015f9055505050808061057490610b60565b91505061042e565b505b5f60058054905011156105d457600580548061059d5761059c610ba7565b5b600190038181905f5260205f20015f6101000a81549073ffffffffffffffffffffffffffffffffffffffff0219169055905561057e565b5f60646002546105e49190610bd4565b90505f5b828110156106a9575f73ffffffffffffffffffffffffffffffffffffffff1684826064811061061a57610619610b33565b5b602002015173ffffffffffffffffffffffffffffffffffffffff16146106965783816064811061064d5761064c610b33565b5b602002015173ffffffffffffffffffffffffffffffffffffffff166108fc8390811502906040515f60405180830381858888f19350505050158015610694573d5f803e3d5ffd5b505b80806106a190610b60565b9150506105e8565b5050505050565b6106b9336102cf565b156106c2575f80fd5b600181101580156106d45750600a8111155b6106dc575f80fd5b6001543410156106ea575f80fd5b3460065f3373ffffffffffffffffffffffffffffffffffffffff1673ffffffffffffffffffffffffffffffffffffffff1681526020019081526020015f205f01819055508060065f3373ffffffffffffffffffffffffffffffffffffffff1673ffffffffffffffffffffffffffffffffffffffff1681526020019081526020015f206001018190555060035f81548092919061078590610b60565b9190505550600533908060018154018082558091505060019003905f5260205f20015f9091909190916101000a81548173ffffffffffffffffffffffffffffffffffffffff021916908373ffffffffffffffffffffffffffffffffffffffff1602179055503460025f8282546107fb9190610b00565b9250508190555060045460035410610816576108156102a1565b5b50565b5f8054906101000a900473ffffffffffffffffffffffffffffffffffffffff1681565b60015481565b60045481565b60058181548110610857575f80fd5b905f5260205f20015f915054906101000a900473ffffffffffffffffffffffffffffffffffffffff1681565b60025481565b60405180610c800160405280606490602082028036833780820191505090505090565b5f819050919050565b6108be816108ac565b82525050565b5f6020820190506108d75f8301846108b5565b92915050565b5f80fd5b5f73ffffffffffffffffffffffffffffffffffffffff82169050919050565b5f61090a826108e1565b9050919050565b61091a81610900565b8114610924575f80fd5b50565b5f8135905061093581610911565b92915050565b5f602082840312156109505761094f6108dd565b5b5f61095d84828501610927565b91505092915050565b5f8115159050919050565b61097a81610966565b82525050565b5f6020820190506109935f830184610971565b92915050565b5f6040820190506109ac5f8301856108b5565b6109b960208301846108b5565b9392505050565b6109c9816108ac565b81146109d3575f80fd5b50565b5f813590506109e4816109c0565b92915050565b5f602082840312156109ff576109fe6108dd565b5b5f610a0c848285016109d6565b91505092915050565b5f610a1f826108e1565b9050919050565b610a2f81610a15565b82525050565b5f602082019050610a485f830184610a26565b92915050565b610a5781610900565b82525050565b5f602082019050610a705f830184610a4e565b92915050565b7f4e487b71000000000000000000000000000000000000000000000000000000005f52601260045260245ffd5b5f610aad826108ac565b9150610ab8836108ac565b925082610ac857610ac7610a76565b5b828206905092915050565b7f4e487b71000000000000000000000000000000000000000000000000000000005f52601160045260245ffd5b5f610b0a826108ac565b9150610b15836108ac565b9250828201905080821115610b2d57610b2c610ad3565b5b92915050565b7f4e487b71000000000000000000000000000000000000000000000000000000005f52603260045260245ffd5b5f610b6a826108ac565b91507fffffffffffffffffffffffffffffffffffffffffffffffffffffffffffffffff8203610b9c57610b9b610ad3565b5b600182019050919050565b7f4e487b71000000000000000000000000000000000000000000000000000000005f52603160045260245ffd5b5f610bde826108ac565b9150610be9836108ac565b925082610bf957610bf8610a76565b5b82820490509291505056fea2646970667358221220561c36799cd96b06df34e0838f62c47bece7cdbf504195cae55c735586174e7564736f6c63430008150033",
  "immutableReferences": {},
  "source": " pragma solidity 0.8.21;\n\n contract Casino {\n    address payable public owner;\n    uint256 public minimumBet;\n    uint256 public totalBet;\n    uint256 public numberOfBets;\n    uint256 public maxAmountOfBets = 100;\n\n    address[] public players;\n\n    struct Player {\n        uint256 amountBet;\n\t    uint256 numberSelected;\n    }\n\n    // address of the player mapped to the user info\n\n    mapping(address => Player) public playerInfo;\n\n    constructor (uint256 _minimumBet) {\n        owner = payable(msg.sender);\n        if(_minimumBet != 0) minimumBet = _minimumBet;\n    }\n\n    function kill() public {\n        if(msg.sender == owner) \n        selfdestruct(owner);\n    }\n\n    function checkPlayerExists(address player) public returns(bool){\n        for (uint i = 0; i < players.length; i++){\n            if(players[i] == player) return true;\n        }\n        return false;\n    }\n\n    function bet(uint256 numberSelected) public payable {\n        require(!checkPlayerExists(msg.sender));\n\t    require(numberSelected >= 1 && numberSelected <= 10);\n\t    require(msg.value >= minimumBet);\n\n\t    playerInfo[msg.sender].amountBet = msg.value;\n\t    playerInfo[msg.sender].numberSelected = numberSelected;\n\t    numberOfBets++;\n\n\t    players.push(msg.sender);\n\t    totalBet += msg.value;\n        if(numberOfBets >= maxAmountOfBets) generateNumberWinner();\n    }\n\n    // Generates number between 1 and 10 that will be the winner\n\n    function generateNumberWinner() public {\n        uint256 numberGenerated = block.number % 10 + 1;\n        distributePrizes(numberGenerated);\n    }\n\n    //sends ether to the winners\n\n    function distributePrizes(uint256 numberWinner) public {\n        address payable[100] memory winners; //Create an in memory array with a fixed size\n        uint256 count = 0;\n\n        for (uint256 i = 0; i < players.length; i++) {\n            address playerAddress = players[i];\n            if(playerInfo[playerAddress].numberSelected == numberWinner){\n                winners[count] = payable(playerAddress);\n                count++;\n            }\n            delete playerInfo[playerAddress];\n        }\n\n        while(players.length > 0) {\n            players.pop();\n        }\n\n        uint256 winnerEtherAmount = totalBet / winners.length; // Each winner gets total bet devided by the length of the winner array\n\n        for(uint256 j = 0; j < count; j++){\n            if(winners[j] != address(0))\n            winners[j].transfer(winnerEtherAmount);\n        }\n    }\n}\n",
  "sourcePath": "/home/biniyam/TenAcademy/GeoLogix-Ethereum-dApp/number-betting/contracts/Casino.sol",
  "compiler": {
    "name": "solc",
    "version": "0.8.21+commit.d9974bed.Emscripten.clang"
  },
  "schemaVersion": "3.4.16",
  "updatedAt": "2024-02-09T09:03:59.254Z",
  "devdoc": {
    "kind": "dev",
    "methods": {},
    "version": 1
  },
  "userdoc": {
    "kind": "user",
    "methods": {},
    "version": 1
  }
}